{
	"Untitled.sol": {
		"Counter": {
			"abi": [
				{
					"inputs": [],
					"stateMutability": "nonpayable",
					"type": "constructor"
				},
				{
					"anonymous": false,
					"inputs": [
						{
							"indexed": false,
							"internalType": "uint256",
							"name": "value",
							"type": "uint256"
						}
					],
					"name": "Decrement",
					"type": "event"
				},
				{
					"anonymous": false,
					"inputs": [
						{
							"indexed": false,
							"internalType": "uint256",
							"name": "value",
							"type": "uint256"
						}
					],
					"name": "Increment",
					"type": "event"
				},
				{
					"inputs": [],
					"name": "count",
					"outputs": [
						{
							"internalType": "uint256",
							"name": "",
							"type": "uint256"
						}
					],
					"stateMutability": "view",
					"type": "function"
				},
				{
					"inputs": [],
					"name": "decrement",
					"outputs": [],
					"stateMutability": "nonpayable",
					"type": "function"
				},
				{
					"inputs": [],
					"name": "getCount",
					"outputs": [
						{
							"internalType": "uint256",
							"name": "",
							"type": "uint256"
						}
					],
					"stateMutability": "view",
					"type": "function"
				},
				{
					"inputs": [],
					"name": "increment",
					"outputs": [],
					"stateMutability": "nonpayable",
					"type": "function"
				}
			],
			"devdoc": {
				"kind": "dev",
				"methods": {},
				"version": 1
			},
			"evm": {
				"assembly": "    /* \"Untitled.sol\":57:497  contract Counter {... */\n  mstore(0x40, 0x80)\n    /* \"Untitled.sol\":100:101  0 */\n  0x00\n    /* \"Untitled.sol\":80:101  uint public count = 0 */\n  0x00\n  sstore\n    /* \"Untitled.sol\":257:297  constructor() {... */\n  callvalue\n  dup1\n  iszero\n  tag_1\n  jumpi\n  revert(0x00, 0x00)\ntag_1:\n  pop\n    /* \"Untitled.sol\":289:290  0 */\n  0x00\n    /* \"Untitled.sol\":281:286  count */\n  0x00\n    /* \"Untitled.sol\":281:290  count = 0 */\n  dup2\n  swap1\n  sstore\n  pop\n    /* \"Untitled.sol\":57:497  contract Counter {... */\n  dataSize(sub_0)\n  dup1\n  dataOffset(sub_0)\n  0x00\n  codecopy\n  0x00\n  return\nstop\n\nsub_0: assembly {\n        /* \"Untitled.sol\":57:497  contract Counter {... */\n      mstore(0x40, 0x80)\n      callvalue\n      dup1\n      iszero\n      tag_1\n      jumpi\n      revert(0x00, 0x00)\n    tag_1:\n      pop\n      jumpi(tag_2, lt(calldatasize, 0x04))\n      shr(0xe0, calldataload(0x00))\n      dup1\n      0x06661abd\n      eq\n      tag_3\n      jumpi\n      dup1\n      0x2baeceb7\n      eq\n      tag_4\n      jumpi\n      dup1\n      0xa87d942c\n      eq\n      tag_5\n      jumpi\n      dup1\n      0xd09de08a\n      eq\n      tag_6\n      jumpi\n    tag_2:\n      revert(0x00, 0x00)\n        /* \"Untitled.sol\":80:101  uint public count = 0 */\n    tag_3:\n      tag_7\n      tag_8\n      jump\t// in\n    tag_7:\n      mload(0x40)\n      tag_9\n      swap2\n      swap1\n      tag_10\n      jump\t// in\n    tag_9:\n      mload(0x40)\n      dup1\n      swap2\n      sub\n      swap1\n      return\n        /* \"Untitled.sol\":401:494  function decrement() public {... */\n    tag_4:\n      tag_11\n      tag_12\n      jump\t// in\n    tag_11:\n      stop\n        /* \"Untitled.sol\":176:251  function getCount() view public returns (uint){... */\n    tag_5:\n      tag_13\n      tag_14\n      jump\t// in\n    tag_13:\n      mload(0x40)\n      tag_15\n      swap2\n      swap1\n      tag_10\n      jump\t// in\n    tag_15:\n      mload(0x40)\n      dup1\n      swap2\n      sub\n      swap1\n      return\n        /* \"Untitled.sol\":303:396  function increment() public {... */\n    tag_6:\n      tag_16\n      tag_17\n      jump\t// in\n    tag_16:\n      stop\n        /* \"Untitled.sol\":80:101  uint public count = 0 */\n    tag_8:\n      sload(0x00)\n      dup2\n      jump\t// out\n        /* \"Untitled.sol\":401:494  function decrement() public {... */\n    tag_12:\n        /* \"Untitled.sol\":455:456  1 */\n      0x01\n        /* \"Untitled.sol\":447:452  count */\n      sload(0x00)\n        /* \"Untitled.sol\":447:456  count - 1 */\n      tag_19\n      swap2\n      swap1\n      tag_20\n      jump\t// in\n    tag_19:\n        /* \"Untitled.sol\":439:444  count */\n      0x00\n        /* \"Untitled.sol\":439:456  count = count - 1 */\n      dup2\n      swap1\n      sstore\n      pop\n        /* \"Untitled.sol\":471:487  Decrement(count) */\n      0x32814a5bdfd1b8c3d76c49c54e043d6e8aa93d197a09e16599b567135503f748\n        /* \"Untitled.sol\":481:486  count */\n      sload(0x00)\n        /* \"Untitled.sol\":471:487  Decrement(count) */\n      mload(0x40)\n      tag_21\n      swap2\n      swap1\n      tag_10\n      jump\t// in\n    tag_21:\n      mload(0x40)\n      dup1\n      swap2\n      sub\n      swap1\n      log1\n        /* \"Untitled.sol\":401:494  function decrement() public {... */\n      jump\t// out\n        /* \"Untitled.sol\":176:251  function getCount() view public returns (uint){... */\n    tag_14:\n        /* \"Untitled.sol\":217:221  uint */\n      0x00\n        /* \"Untitled.sol\":239:244  count */\n      sload(0x00)\n        /* \"Untitled.sol\":232:244  return count */\n      swap1\n      pop\n        /* \"Untitled.sol\":176:251  function getCount() view public returns (uint){... */\n      swap1\n      jump\t// out\n        /* \"Untitled.sol\":303:396  function increment() public {... */\n    tag_17:\n        /* \"Untitled.sol\":357:358  1 */\n      0x01\n        /* \"Untitled.sol\":349:354  count */\n      sload(0x00)\n        /* \"Untitled.sol\":349:358  count + 1 */\n      tag_24\n      swap2\n      swap1\n      tag_25\n      jump\t// in\n    tag_24:\n        /* \"Untitled.sol\":341:346  count */\n      0x00\n        /* \"Untitled.sol\":341:358  count = count + 1 */\n      dup2\n      swap1\n      sstore\n      pop\n        /* \"Untitled.sol\":373:389  Increment(count) */\n      0x51af157c2eee40f68107a47a49c32fbbeb0a3c9e5cd37aa56e88e6be92368a81\n        /* \"Untitled.sol\":383:388  count */\n      sload(0x00)\n        /* \"Untitled.sol\":373:389  Increment(count) */\n      mload(0x40)\n      tag_26\n      swap2\n      swap1\n      tag_10\n      jump\t// in\n    tag_26:\n      mload(0x40)\n      dup1\n      swap2\n      sub\n      swap1\n      log1\n        /* \"Untitled.sol\":303:396  function increment() public {... */\n      jump\t// out\n        /* \"#utility.yul\":7:84   */\n    tag_27:\n        /* \"#utility.yul\":44:51   */\n      0x00\n        /* \"#utility.yul\":73:78   */\n      dup2\n        /* \"#utility.yul\":62:78   */\n      swap1\n      pop\n        /* \"#utility.yul\":7:84   */\n      swap2\n      swap1\n      pop\n      jump\t// out\n        /* \"#utility.yul\":90:208   */\n    tag_28:\n        /* \"#utility.yul\":177:201   */\n      tag_33\n        /* \"#utility.yul\":195:200   */\n      dup2\n        /* \"#utility.yul\":177:201   */\n      tag_27\n      jump\t// in\n    tag_33:\n        /* \"#utility.yul\":172:175   */\n      dup3\n        /* \"#utility.yul\":165:202   */\n      mstore\n        /* \"#utility.yul\":90:208   */\n      pop\n      pop\n      jump\t// out\n        /* \"#utility.yul\":214:436   */\n    tag_10:\n        /* \"#utility.yul\":307:311   */\n      0x00\n        /* \"#utility.yul\":345:347   */\n      0x20\n        /* \"#utility.yul\":334:343   */\n      dup3\n        /* \"#utility.yul\":330:348   */\n      add\n        /* \"#utility.yul\":322:348   */\n      swap1\n      pop\n        /* \"#utility.yul\":358:429   */\n      tag_35\n        /* \"#utility.yul\":426:427   */\n      0x00\n        /* \"#utility.yul\":415:424   */\n      dup4\n        /* \"#utility.yul\":411:428   */\n      add\n        /* \"#utility.yul\":402:408   */\n      dup5\n        /* \"#utility.yul\":358:429   */\n      tag_28\n      jump\t// in\n    tag_35:\n        /* \"#utility.yul\":214:436   */\n      swap3\n      swap2\n      pop\n      pop\n      jump\t// out\n        /* \"#utility.yul\":442:622   */\n    tag_29:\n        /* \"#utility.yul\":490:567   */\n      0x4e487b7100000000000000000000000000000000000000000000000000000000\n        /* \"#utility.yul\":487:488   */\n      0x00\n        /* \"#utility.yul\":480:568   */\n      mstore\n        /* \"#utility.yul\":587:591   */\n      0x11\n        /* \"#utility.yul\":584:585   */\n      0x04\n        /* \"#utility.yul\":577:592   */\n      mstore\n        /* \"#utility.yul\":611:615   */\n      0x24\n        /* \"#utility.yul\":608:609   */\n      0x00\n        /* \"#utility.yul\":601:616   */\n      revert\n        /* \"#utility.yul\":628:822   */\n    tag_20:\n        /* \"#utility.yul\":668:672   */\n      0x00\n        /* \"#utility.yul\":688:708   */\n      tag_38\n        /* \"#utility.yul\":706:707   */\n      dup3\n        /* \"#utility.yul\":688:708   */\n      tag_27\n      jump\t// in\n    tag_38:\n        /* \"#utility.yul\":683:708   */\n      swap2\n      pop\n        /* \"#utility.yul\":722:742   */\n      tag_39\n        /* \"#utility.yul\":740:741   */\n      dup4\n        /* \"#utility.yul\":722:742   */\n      tag_27\n      jump\t// in\n    tag_39:\n        /* \"#utility.yul\":717:742   */\n      swap3\n      pop\n        /* \"#utility.yul\":766:767   */\n      dup3\n        /* \"#utility.yul\":763:764   */\n      dup3\n        /* \"#utility.yul\":759:768   */\n      sub\n        /* \"#utility.yul\":751:768   */\n      swap1\n      pop\n        /* \"#utility.yul\":790:791   */\n      dup2\n        /* \"#utility.yul\":784:788   */\n      dup2\n        /* \"#utility.yul\":781:792   */\n      gt\n        /* \"#utility.yul\":778:815   */\n      iszero\n      tag_40\n      jumpi\n        /* \"#utility.yul\":795:813   */\n      tag_41\n      tag_29\n      jump\t// in\n    tag_41:\n        /* \"#utility.yul\":778:815   */\n    tag_40:\n        /* \"#utility.yul\":628:822   */\n      swap3\n      swap2\n      pop\n      pop\n      jump\t// out\n        /* \"#utility.yul\":828:1019   */\n    tag_25:\n        /* \"#utility.yul\":868:871   */\n      0x00\n        /* \"#utility.yul\":887:907   */\n      tag_43\n        /* \"#utility.yul\":905:906   */\n      dup3\n        /* \"#utility.yul\":887:907   */\n      tag_27\n      jump\t// in\n    tag_43:\n        /* \"#utility.yul\":882:907   */\n      swap2\n      pop\n        /* \"#utility.yul\":921:941   */\n      tag_44\n        /* \"#utility.yul\":939:940   */\n      dup4\n        /* \"#utility.yul\":921:941   */\n      tag_27\n      jump\t// in\n    tag_44:\n        /* \"#utility.yul\":916:941   */\n      swap3\n      pop\n        /* \"#utility.yul\":964:965   */\n      dup3\n        /* \"#utility.yul\":961:962   */\n      dup3\n        /* \"#utility.yul\":957:966   */\n      add\n        /* \"#utility.yul\":950:966   */\n      swap1\n      pop\n        /* \"#utility.yul\":985:988   */\n      dup1\n        /* \"#utility.yul\":982:983   */\n      dup3\n        /* \"#utility.yul\":979:989   */\n      gt\n        /* \"#utility.yul\":976:1012   */\n      iszero\n      tag_45\n      jumpi\n        /* \"#utility.yul\":992:1010   */\n      tag_46\n      tag_29\n      jump\t// in\n    tag_46:\n        /* \"#utility.yul\":976:1012   */\n    tag_45:\n        /* \"#utility.yul\":828:1019   */\n      swap3\n      swap2\n      pop\n      pop\n      jump\t// out\n\n    auxdata: 0xa264697066735822122066b193aa86ce247247c611943a2c13ca8dc08696bb22b6209a369e54ebc84b3964736f6c634300081e0033\n}\n",
				"bytecode": {
					"linkReferences": {},
					"object": "60806040525f5f553480156011575f5ffd5b505f5f8190555061023f806100255f395ff3fe608060405234801561000f575f5ffd5b506004361061004a575f3560e01c806306661abd1461004e5780632baeceb71461006c578063a87d942c14610076578063d09de08a14610094575b5f5ffd5b61005661009e565b604051610063919061015d565b60405180910390f35b6100746100a3565b005b61007e6100f0565b60405161008b919061015d565b60405180910390f35b61009c6100f8565b005b5f5481565b60015f546100b191906101a3565b5f819055507f32814a5bdfd1b8c3d76c49c54e043d6e8aa93d197a09e16599b567135503f7485f546040516100e6919061015d565b60405180910390a1565b5f5f54905090565b60015f5461010691906101d6565b5f819055507f51af157c2eee40f68107a47a49c32fbbeb0a3c9e5cd37aa56e88e6be92368a815f5460405161013b919061015d565b60405180910390a1565b5f819050919050565b61015781610145565b82525050565b5f6020820190506101705f83018461014e565b92915050565b7f4e487b71000000000000000000000000000000000000000000000000000000005f52601160045260245ffd5b5f6101ad82610145565b91506101b883610145565b92508282039050818111156101d0576101cf610176565b5b92915050565b5f6101e082610145565b91506101eb83610145565b925082820190508082111561020357610202610176565b5b9291505056fea264697066735822122066b193aa86ce247247c611943a2c13ca8dc08696bb22b6209a369e54ebc84b3964736f6c634300081e0033",
					"opcodes": "PUSH1 0x80 PUSH1 0x40 MSTORE PUSH0 PUSH0 SSTORE CALLVALUE DUP1 ISZERO PUSH1 0x11 JUMPI PUSH0 PUSH0 REVERT JUMPDEST POP PUSH0 PUSH0 DUP2 SWAP1 SSTORE POP PUSH2 0x23F DUP1 PUSH2 0x25 PUSH0 CODECOPY PUSH0 RETURN INVALID PUSH1 0x80 PUSH1 0x40 MSTORE CALLVALUE DUP1 ISZERO PUSH2 0xF JUMPI PUSH0 PUSH0 REVERT JUMPDEST POP PUSH1 0x4 CALLDATASIZE LT PUSH2 0x4A JUMPI PUSH0 CALLDATALOAD PUSH1 0xE0 SHR DUP1 PUSH4 0x6661ABD EQ PUSH2 0x4E JUMPI DUP1 PUSH4 0x2BAECEB7 EQ PUSH2 0x6C JUMPI DUP1 PUSH4 0xA87D942C EQ PUSH2 0x76 JUMPI DUP1 PUSH4 0xD09DE08A EQ PUSH2 0x94 JUMPI JUMPDEST PUSH0 PUSH0 REVERT JUMPDEST PUSH2 0x56 PUSH2 0x9E JUMP JUMPDEST PUSH1 0x40 MLOAD PUSH2 0x63 SWAP2 SWAP1 PUSH2 0x15D JUMP JUMPDEST PUSH1 0x40 MLOAD DUP1 SWAP2 SUB SWAP1 RETURN JUMPDEST PUSH2 0x74 PUSH2 0xA3 JUMP JUMPDEST STOP JUMPDEST PUSH2 0x7E PUSH2 0xF0 JUMP JUMPDEST PUSH1 0x40 MLOAD PUSH2 0x8B SWAP2 SWAP1 PUSH2 0x15D JUMP JUMPDEST PUSH1 0x40 MLOAD DUP1 SWAP2 SUB SWAP1 RETURN JUMPDEST PUSH2 0x9C PUSH2 0xF8 JUMP JUMPDEST STOP JUMPDEST PUSH0 SLOAD DUP2 JUMP JUMPDEST PUSH1 0x1 PUSH0 SLOAD PUSH2 0xB1 SWAP2 SWAP1 PUSH2 0x1A3 JUMP JUMPDEST PUSH0 DUP2 SWAP1 SSTORE POP PUSH32 0x32814A5BDFD1B8C3D76C49C54E043D6E8AA93D197A09E16599B567135503F748 PUSH0 SLOAD PUSH1 0x40 MLOAD PUSH2 0xE6 SWAP2 SWAP1 PUSH2 0x15D JUMP JUMPDEST PUSH1 0x40 MLOAD DUP1 SWAP2 SUB SWAP1 LOG1 JUMP JUMPDEST PUSH0 PUSH0 SLOAD SWAP1 POP SWAP1 JUMP JUMPDEST PUSH1 0x1 PUSH0 SLOAD PUSH2 0x106 SWAP2 SWAP1 PUSH2 0x1D6 JUMP JUMPDEST PUSH0 DUP2 SWAP1 SSTORE POP PUSH32 0x51AF157C2EEE40F68107A47A49C32FBBEB0A3C9E5CD37AA56E88E6BE92368A81 PUSH0 SLOAD PUSH1 0x40 MLOAD PUSH2 0x13B SWAP2 SWAP1 PUSH2 0x15D JUMP JUMPDEST PUSH1 0x40 MLOAD DUP1 SWAP2 SUB SWAP1 LOG1 JUMP JUMPDEST PUSH0 DUP2 SWAP1 POP SWAP2 SWAP1 POP JUMP JUMPDEST PUSH2 0x157 DUP2 PUSH2 0x145 JUMP JUMPDEST DUP3 MSTORE POP POP JUMP JUMPDEST PUSH0 PUSH1 0x20 DUP3 ADD SWAP1 POP PUSH2 0x170 PUSH0 DUP4 ADD DUP5 PUSH2 0x14E JUMP JUMPDEST SWAP3 SWAP2 POP POP JUMP JUMPDEST PUSH32 0x4E487B7100000000000000000000000000000000000000000000000000000000 PUSH0 MSTORE PUSH1 0x11 PUSH1 0x4 MSTORE PUSH1 0x24 PUSH0 REVERT JUMPDEST PUSH0 PUSH2 0x1AD DUP3 PUSH2 0x145 JUMP JUMPDEST SWAP2 POP PUSH2 0x1B8 DUP4 PUSH2 0x145 JUMP JUMPDEST SWAP3 POP DUP3 DUP3 SUB SWAP1 POP DUP2 DUP2 GT ISZERO PUSH2 0x1D0 JUMPI PUSH2 0x1CF PUSH2 0x176 JUMP JUMPDEST JUMPDEST SWAP3 SWAP2 POP POP JUMP JUMPDEST PUSH0 PUSH2 0x1E0 DUP3 PUSH2 0x145 JUMP JUMPDEST SWAP2 POP PUSH2 0x1EB DUP4 PUSH2 0x145 JUMP JUMPDEST SWAP3 POP DUP3 DUP3 ADD SWAP1 POP DUP1 DUP3 GT ISZERO PUSH2 0x203 JUMPI PUSH2 0x202 PUSH2 0x176 JUMP JUMPDEST JUMPDEST SWAP3 SWAP2 POP POP JUMP INVALID LOG2 PUSH5 0x6970667358 0x22 SLT KECCAK256 PUSH7 0xB193AA86CE2472 SELFBALANCE 0xC6 GT SWAP5 GASPRICE 0x2C SGT 0xCA DUP14 0xC0 DUP7 SWAP7 0xBB 0x22 0xB6 KECCAK256 SWAP11 CALLDATASIZE SWAP15 SLOAD 0xEB 0xC8 0x4B CODECOPY PUSH5 0x736F6C6343 STOP ADDMOD 0x1E STOP CALLER "
				},
				"gasEstimates": {
					"creation": {
						"codeDepositCost": "115000",
						"executionCost": "10173",
						"totalCost": "125173"
					},
					"external": {
						"count()": "2402",
						"decrement()": "infinite",
						"getCount()": "2453",
						"increment()": "infinite"
					}
				},
				"methodIdentifiers": {
					"count()": "06661abd",
					"decrement()": "2baeceb7",
					"getCount()": "a87d942c",
					"increment()": "d09de08a"
				}
			},
			"storageLayout": {
				"storage": [
					{
						"astId": 4,
						"contract": "Untitled.sol:Counter",
						"label": "count",
						"offset": 0,
						"slot": "0",
						"type": "t_uint256"
					}
				],
				"types": {
					"t_uint256": {
						"encoding": "inplace",
						"label": "uint256",
						"numberOfBytes": "32"
					}
				}
			},
			"userdoc": {
				"kind": "user",
				"methods": {},
				"version": 1
			}
		}
	}
}